S0180000636964436972637569745465737465722E7372656392
S11300000C9461000C947E000C947E000C947E0091
S11300100C947E000C947E000C947E000C947E0064
S11300200C947E000C947E000C947E000C947E0054
S11300300C947E000C947E000C947E000C947E0044
S11300400C947E000C947E000C947E000C947E0034
S11300500C947E00F400F800FC0000010401080187
S11300600C011001140118014C014C014C014C010C
S11300704C014C014C011C0124012C0134013C01B4
S113008044014C014C014C014C014C014C014C010C
S11300904C014C014C014C014C014C014C014C01F4
S11300A04C014C014C014C014C014C014C014C01E4
S11300B04C014C014C012001280130013801400160
S11300C0480111241FBECFE5D8E0DEBFCDBF10E04C
S11300D0A0E6B0E0EEE7F9E002C005900D92AE387C
S11300E0B107D9F720E0AEE8B0E001C01D92A43911
S11300F0B207E1F70E944F010C94BD040C94000078
S113010084B38F6084BB85B385BB8F98979A089519
S1130110EDE8F0E023E030E0A1E0B0E09291982334
S113012059F095B3AD01022E02C0440F551F0A9435
S1130130E2F7492B45BB0CC045B3BD01022E02C0FA
S1130140660F771F0A94E2F7962F9095942395BB38
S11301502150310918F733B323B393B383B333FB7B
S1130160332730F91F923F9322FB222720F91F9255
S11301702F93969591701F929F9381701F928F93E6
S11301808EE690E09F938F930E94DF0180B3082E48
S1130190000C990B892F881F8827881F1F928F9323
S11301A087E790E09F938F930E94DF018DB79EB7FE
S11301B00E960FB6F8949EBF0FBE8DBF0895CF93D1
S11301C0C0E08C2F0E948800CF5FC031D1F7CF915F
S11301D0089590E0FC01F097E733F10508F05CC066
S11301E0E65DFF4F0C949B0180E00E948800089517
S11301F081E00E948800089582E00E9488000895AA
S113020083E00E948800089584E00E948800089595
S113021085E00E948800089586E00E948800089581
S113022087E00E948800089588E00E94880008956D
S113023089E00E94880008958AE00E948800089559
S11302408AE00E94880008958BE00E948800089547
S11302508BE00E94880008958CE00E948800089535
S11302608CE00E94880008958DE00E948800089523
S11302708DE00E94880008958EE00E948800089511
S11302808EE00E94880008958FE00E9488000895FF
S11302908FE00E94880008950E94DF0008958CE09A
S11302A090E00E9487010E94800080E890E09F9384
S11302B08F930E94DF010E94DF000F900F900EE8E1
S11302C010E00F2EFEE7EF2EF0E0FF2EF02DF801E8
S11302D0808191810E94A101C82F882349F0FF9257
S11302E0EF920E94DF018C2F0E94E9000F900F9083
S11302F087EA91E60197F1F700C00000E8CF5D9B23
S1130300FECF8CB908955F9BFECF8CB1089520E693
S113031030E0309391002093900030938F0020932D
S11303208E0089B990BD599A8AB188618AB980B51D
S1130330866880BD0895EE0FFF1F0590F491E02DAF
S11303400994CF93DF93EC012B8120FF33C026FF68
S11303500AC02F7B2B838E819F8101969F838E837E
S11303608A8190E029C022FF0FC0E881F981808151
S1130370082E000C990B009719F420622B831AC0E5
S11303803196F983E8830EC0EA85FB85099597FFCA
S113039009C02B81019611F080E201C080E1822B1B
S11303A08B8308C02E813F812F5F3F4F3F832E8375
S11303B0992702C08FEF9FEFDF91CF910895A0E0BE
S11303C0B0E0E5EEF1E00C949604AE014B5F5F4FB4
S11303D0FA0161917191AF01809190009091910027
S11303E00E94F501E2E00C94B204ABE0B0E0EBEF64
S11303F0F1E00C9486046C017B018A01FC011782F4
S11304001682838181FFCCC1CE0101963C01F601A5
S11304109381F70193FD859193FF81917F01882357
S113042009F4BAC1853239F493FD859193FF819122
S11304307F01853229F4B60190E00E94EC03E7CFF6
S1130440912C212C312CFFE1F315D8F08B3279F06B
S113045038F4803279F08332A1F4232D20611DC059
S11304608D3261F0803369F4232D216016C0832D11
S11304708260382EE32DE4603E2E2AC0F32DF8600E
S11304801DC037FC2DC020ED280F2A3040F08E32DD
S1130490B9F436FC81C1232D2064322E19C036FEF6
S11304A006C08AE0989E200D1124922E11C0EAE025
S11304B02E9E200D1124222EF32DF0623F2E08C013
S11304C08C3621F4832D8068382E02C0883641F49E
S11304D0F70193FD859193FF81917F018111B3CF42
S11304E0982F9F7D9554933028F40C5F1F4F9FE302
S11304F099830DC0833631F0833771F0833509F069
S113050059C021C0F801808189830E5F1F4F882460
S11305108394912C530113C02801F2E04F0E511C17
S1130520F801A080B18036FE03C0692D70E002C0DE
S11305306FEF7FEFC5010E94E1034C018201F32DAF
S1130540FF773F2E16C0280122E0420E511CF8010D
S1130550A080B18036FE03C0692D70E002C06FEF49
S11305607FEFC5010E94D6034C01F32DF0683F2EA6
S1130570820133FC1BC0822D90E088169906B0F4EA
S1130580B60180E290E00E94EC032A94F4CFF501D6
S113059037FC859137FE81915F01B60190E00E949E
S11305A0EC0321102A9421E0821A91088114910409
S11305B071F7E8C0843611F0893641F5F80137FE49
S11305C007C060817181828193810C5F1F4F08C0D5
S11305D060817181072E000C880B990B0E5F1F4FF1
S11305E0F32DFF763F2E97FF09C090958095709567
S11305F061957F4F8F4F9F4FF0683F2E2AE030E088
S1130600A3010E942804882E861845C0853731F43A
S1130610232D2F7EB22E2AE030E025C0932D997F22
S1130620B92E8F36C1F018F4883579F0B5C080370B
S113063019F0883721F0B0C0E92FE061BE2EB4FE76
S11306400DC0FB2DF460BF2E09C034FE0AC0292F53
S11306502660B22E06C028E030E005C020E130E07C
S113066002C020E132E0F801B7FE07C06081718169
S1130670828193810C5F1F4F06C06081718180E08D
S113068090E00E5F1F4FA3010E942804882E861855
S1130690FB2DFF773F2E36FE0DC0232D2E7FA22E7D
S11306A0891458F434FE0BC032FC09C0832D8E7EAD
S11306B0A82E05C0B82CA32C03C0B82C01C0B92C9B
S11306C0A4FE0FC0FE01E80DF11D8081803321F4EA
S11306D09A2D997EA92E09C0A2FE06C0B394B394A4
S11306E004C08A2D867809F0B394A3FC11C0A0FE3F
S11306F006C0B21488F4280C922C9B180EC0B214B5
S113070060F4B60180E290E00E94EC03B394F7CF6A
S1130710B21418F42B1802C0982C212CA4FE10C07B
S1130720B60180E390E00E94EC03A2FE17C0A1FC96
S113073003C088E790E002C088E590E0B6010CC0F1
S11307408A2D867859F0A1FE02C08BE201C080E2B6
S1130750A7FC8DE2B60190E00E94EC03891438F402
S1130760B60180E390E00E94EC039A94F7CF8A9458
S1130770F301E80DF11D8081B60190E00E94EC03C5
S11307808110F5CF222009F442CEB60180E290E038
S11307900E94EC032A94F6CFF6018681978102C069
S11307A08FEF9FEF2B96E2E10C94A204FC010590DD
S11307B0615070400110D8F7809590958E0F9F1F5F
S11307C00895FC016150704001900110D8F78095A4
S11307D090958E0F9F1F08950F931F93CF93DF93D0
S11307E0FB01238121FD03C08FEF9FEF2CC022FF6B
S11307F016C046815781248135814217530744F43A
S1130800A081B1819D012F5F3F4F318320838C9361
S1130810268137812F5F3F4F3783268314C08B0196
S1130820EC01FB010084F185E02D0995892BE1F6AB
S1130830D80116968D919C911797019617969C93C3
S11308408E931697CE01DF91CF911F910F9108954A
S1130850FA01AA27283051F1203181F1E8946F93ED
S11308606E7F6E5F7F4F8F4F9F4FAF4FB1E03ED093
S1130870B4E03CD0670F781F891F9A1FA11D680F31
S1130880791F8A1F911DA11D6A0F711D811D911D64
S1130890A11D20D009F468943F912AE0269F1124D9
S11308A03019305D3193DEF6CF010895462F47703D
S11308B0405D4193B3E00FD0C9F7F6CF462F4F7098
S11308C0405D4A3318F0495D31FD4052419302D0F6
S11308D0A9F7EACFB4E0A69597958795779567959C
S11308E0BA95C9F700976105710508959B01AC019C
S11308F00A2E06945795479537952795BA95C9F7C3
S1130900620F731F841F951FA01D08952F923F929D
S11309104F925F926F927F928F929F92AF92BF920B
S1130920CF92DF92EF92FF920F931F93CF93DF93B7
S1130930CDB7DEB7CA1BDB0B0FB6F894DEBF0FBE14
S1130940CDBF09942A88398848885F846E847D8461
S11309508C849B84AA84B984C884DF80EE80FD8063
S11309600C811B81AA81B981CE0FD11D0FB6F894D9
S1110970DEBF0FBECDBFED010895F894FFCF9A
S113097E00000003000000007F01830100002564D5
S113098E25642564256400202564200A0D000A0DC3
S111099E4142434420660A0D00080402010091
S9030000FC
